:030000000206CF26
:0C06CF00787FE4F6D8FD75815F02071605
:05088100030C00002043
:0908D9001208961208BED2AF22EB
:10075B00E4F5421208D91208AB7B007A00790C122F
:10076B00036AEF24FD60131460101470297B007A68
:10077B00007922AD4212053F800B7B007A00792273
:10078B00AD421206078E438F447B007A007922AD6F
:10079B0044AC431207AE7F0A7E007D007C0012083A
:0307AB006680B3B2
:08082B00CF24FDFDEF34FFFCBA
:0A0833008B4B8A4C894D8C4E8D4F83
:10083D00E4F550FFFEC3EF954FEE954E5018AB4BC0
:10084D00AA4CA94D8F828E831204752550F5500F39
:08085D00BF00010E80DFAF5067
:010865002270
:06053F008B458A46894746
:100545008B488A49894AAB48054AE54AAA49700257
:10055500054914F974681204D5AB48054AE54AAA59
:10056500497002054914F974081204D5AB48054AC7
:10057500E54AAA497002054914F9E41204D5AB48C5
:10058500054AE54AAA497002054914F974FF12049F
:10059500D5AB48054AE54AAA497002054914F974DC
:1005A500101204D5AB48054AE54AAA497002054927
:1005B50014F9ED1204D5AB45E5472403F9E43546B6
:1005C500FAC3E54A9547FFE549954612082BAB481E
:1005D500AA49A94AEF1204D57401254AF54AE4351A
:1005E50049F549AB48054AE54AAA49700205491447
:1005F500F974161204D5C3E54A9547FFE5499546B2
:01060500FEF6
:0106060022D1
:060607008B458A4689477D
:10060D008B488A49894AAB48054AE54AAA4970028E
:10061D00054914F974681204D5AB48054AE54AAA90
:10062D00497002054914F974081204D5AB48054AFE
:10063D00E54AAA497002054914F9E41204D5AB48FC
:10064D00054AE54AAA497002054914F974FF1204D6
:10065D00D5AB48054AE54AAA497002054914F97413
:10066D00121204D5AB48054AE54AAA49700205495C
:10067D0014F9ED1204D5AB45E5472403F9E43546ED
:10068D00FAC3E54A9547FFE549954612082BAB4855
:10069D00AA49A94AEF1204D57401254AF54AE43551
:1006AD0049F549AB48054AE54AAA4970020549147E
:1006BD00F974161204D5C3E54A9547FFE5499546E9
:0106CD00FE2E
:0106CE002209
:0A08CF00EF6003C38001D392A02262
:0308E200B2A0229F
:0308E50025630088
:1008960053890F438920438780759850758DFA8553
:0508A6008D8BD28E22B3
:0A07AE008B458A4689478C488D4927
:1007B800E4F54AF54BC3E54B9549E54A954850247D
:1007C800AB45AA46A947854B82854A83120475F52D
:1007D8004F7BFF7A0879E5120070054BE54B70D521
:0407E800054A80D16D
:0107EC0022EA
:080003008F993099FDC299228A
:0608860004080000000060
:1008BE005389F0438901758A67758CFCD2A9C28C65
:0108CE002207
:100866008F0B8E0A8D098C08D28CAF0BAE0AAD09A0
:0B087600AC08EC4D4E4F70F2C28C221B
:03000B000207EDFC
:1007ED00C0E0C0D075D000C004C005C006C00775FC
:1007FD008A67758CFCAF0BAE0AAD09AC08EF24FF10
:10080D00F50BEE34FFF50AED34FFF509EC34FFF589
:0E081D0008D007D006D005D004D0D0D0E032ED
:09088C00011000010F0001110030
:1008AB00E5B0F4FF650F5FF510E5106F650FF511FF
:0208BB008F0F9D
:0108BD002218
:10036A00E4FF12045C14603114607B14700302040D
:10037A001C14700302042B2404600302045B900023
:10038A00021204755510700302045B7F0174011296
:10039A0004D5F582758300804990000212047555D0
:1003AA000F602690000174011204A2900001120449
:1003BA0075C394C874809480500302045B7F0574EB
:1003CA00041204D59000018019900001120475C32B
:1003DA009402748094805002804274021204D59070
:1003EA000001E40204E79000021204755510600649
:1003FA007F047403803890000174011204A29000F3
:10040A0001120475D394197480948040447F03E4E4
:10041A00801C900002120475551160357F02E48039
:10042A000D900002120475551160067F02E4020461
:10043A00D590000174011204A2900001120475C340
:10044A009405748094804009900001E41204E77FC7
:01045A00069B
:01045B00227E
:1006DB0002075BE493A3F8E493A34003F68001F2D3
:1006EB0008DFF48029E493A3F85407240CC8C33320
:1006FB00C4540F4420C8834004F456800146F6DFEF
:10070B00E4800B0102040810204080900881E47EF5
:10071B00019360BCA3FF543F30E509541FFEE493E3
:10072B00A360010ECF54C025E060A840B8E493A3AA
:10073B00FAE493A3F8E493A3C8C582C8CAC583CAD5
:10074B00F0A3C8C582C8CAC583CADFE9DEE780BE8D
:010895000062
:10045C00BB010689828A83E0225002E722BBFE029E
:09046C00E32289828A83E49322D1
:10047500BB010CE58229F582E5833AF583E022503C
:1004850006E92582F8E622BBFE06E92582F8E22286
:0D049500E58229F582E5833AF583E49322A0
:1004A200BB010FF8E58229F582E5833AF583E0285E
:1004B200F0225009C58229F8E58226F622BBFE0900
:1004C200C58229F8E22582F222F8EA2583F583E93A
:0304D2009328224A
:1004D500BB010689828A83F0225002F722BBFE0106
:0204E500F32200
:1004E700F8BB010DE58229F582E5833AF583E8F04B
:1004F700225006E92582C8F622BBFE05E92582C8F7
:02050700F222DE
:10000E00E55B244FF8E6055B22784C300702784F0B
:10001E00E475F00112050902045C2000EB7F2ED27C
:10002E00008018EF540F2490D43440D4FF30040BCA
:10003E00EF24BFB41A0050032461FFE55C60021583
:10004E005C055FE55F7002055E30070D784CE47568
:10005E00F001120509EF0204D50200037403D20762
:10006E008003E4C207F55B8B4C8A4D894EE4F55C48
:10007E00F55EF55FE55C60077F2012004980F5753F
:10008E005DFFC201C200C202C203C205C206C2089F
:10009E00120017FF700D3007057F0012005AAF5F78
:1000AE00AE5E22B4255FC2D5C204120017FF24D063
:1000BE00B40A00501A75F00A785C30D50508B6FF00
:1000CE000106C6A426F620D5047002D20380D924D8
:1000DE00CFB41A00EF5004C2E5D20402025AD20184
:1000EE0080C6D20080C0D20280BCD2D580BAD205E2
:1000FE0080B47F201200492002077401B55C0040D5
:10010E00F112000EFF120049020082D208D20680C0
:10011E009512000EFB12000EFA12000EF94A4B70E9
:10012E0006792B7A037BFF20022EE55C602A7E0087
:10013E008E8275830012047560060EEE655D70F09A
:10014E00C2D5EBC0E0EAC0E0E9C0E0EE1202A1D0F9
:10015E00E0F9D0E0FAD0E0FB12045CFF60AAEBC03D
:10016E00E0EAC0E0E9C0E0120049D0E02401F9D095
:10017E00E03400FAD0E0FBE55D0460DCD55DD980AB
:10018E00877BFF7A02799DD202809C79108002795A
:10019E0008C206C2088008D2D5790A8004790AC23C
:1001AE00D5E55D047002F55DE4FAFDFEFF12000E6A
:1001BE00FC7B0820011312000EFD7B1030000A128A
:1001CE00000EFE12000EFF7B20EC3382D592D5502E
:1001DE0013C3E43000069FFFE49EFEE42001039D5E
:1001EE00FDE49CFCE4CBF8C201EC700CCFCECDCC80
:1001FE00E824F8F870F38017C3EF33FFEE33FEED0B
:10020E0033FDEC33FCEB33FB994002FB0FD8E9EBEB
:10021E00300105F8D0E0C448B201C0E00AEC4D4E02
:10022E004F78207B0070C2EAB55D0040BCC0E01282
:10023E0002A3D0F0D0E0200104C4C0E0C4B201C0DB
:10024E00F0120032D0F0D5F0EB0200821205190147
:10025E001F5301995800F04C00EC42019D4F01A52F
:0F026E004401A54901054301AB55018F46018F9E
:10027D0045018F47034B5000F42D00F82E011B2B29
:10028D0000FC2301192003342A00B4480000011397
:10029D003F3F3F00790AA2D5200314300509B9105C
:1002AD00020404B9080104A2D5200602500104205D
:1002BD0002689202B55C005034C0E07F2030031913
:1002CD007F30A20272067205500F1202FAC202C2EC
:1002DD0006C205C2087F30800F300503E9C0E01269
:1002ED000049300503D0E0F9D0E0B55CCC300517FE
:1002FD007F30B9100C1200497F583004077F788089
:10030D0003B908031200493002057F2D0200497F11
:10031D00202008F87F2B2006F322920280CF286E32
:10032D00756C6C2900D20112000E3001F8C20178F3
:10033D005C30D50108F60200B42D50434958120027
:10034D000E2403B405004001E49003469312003AD5
:0D035D00743A12003AD203755C0402019953
:10050900FAE6FB0808E6F925F0F618E6CA3AF622F3
:10051900D083D082F8E4937012740193700DA3A371
:1005290093F8740193F5828883E473740293686085
:06053900EFA3A3A380DF85
:00000001FF
